:100000000C94DF000C9407010C9407010C94070179
:100010000C9407010C9407010C9407010C94070140
:100020000C9407010C9407010C9407010C94070130
:100030000C9407010C948A070C9407010C94070197
:100040000C94E8060C9407010C9458070C943207A2
:100050000C9407010C9407010C9407010C94070100
:100060000C9407010C94070100407A10F35A00A089
:10007000724E18090010A5D4E80000E87648170071
:1000800000E40B54020000CA9A3B000000E1F505B1
:10009000000080969800000040420F000000A086FB
:1000A00001000000102700000000E803000000002D
:1000B0006400000000000A000000000001000000D1
:1000C00000002C76D888DC674F0823DFC1DFAE59EB
:1000D000E1B1B796E5E3E453C63AE651997696E87E
:1000E000E6C28426EB898C9B62ED407C6FFCEFBC02
:1000F0009C9F40F2BAA56FA5F490055A2AF75C932D
:100100006B6CF9676DC11BFCE0E40D47FEF520E662
:10011000B500D0ED902E0300943577050080841E45
:10012000080000204E0A000000C80C333333330FA0
:10013000986E12831141EF8D2114893BE65516CF3D
:10014000FEE6DB18D1844B381BF77C1D901DA4BB49
:10015000E424203284725E228100C9F124ECA1E5FE
:100160003D2700000000240027002A0000000000B6
:10017000250028002B0000000008000201000003F9
:100180000407000000000000000000000000230041
:1001900026002900040404040404040402020202E8
:1001A000020203030303030301020408102040803A
:1001B000010204081020010204081020B1071124D4
:1001C0001FBECFEFD8E0DEBFCDBF22E0A8EBB1E08D
:1001D00001C01D92A839B207E1F711E0A0E0B1E03B
:1001E000E0E1F2E202C005900D92A83BB107D9F719
:1001F00010E0CFEDD0E004C02197FE010E94040F73
:10020000CE3DD107C9F70E941B080C9406110C942F
:1002100000008F929F92AF92BF92CF92DF92EF92A7
:10022000FF92CF93DF93A0918902882311F03A2F98
:1002300001C030E080918A0290E0880F991F8657B4
:100240009E4FC0908F02D0909002E0909102F0906B
:10025000920240E050E0BA01FC01C591D49128819E
:100260002A23231314C04A015B012FEF821A920A3A
:10027000A20AB20A4C155D056E057F0518F4B5019A
:10028000A401EACF30E020E080E090E003C0342F0A
:10029000252FCB01632F722FDF91CF91FF90EF902D
:1002A000DF90CF90BF90AF909F908F900895833054
:1002B00081F028F4813099F08230A1F008958730E0
:1002C000A9F08830B9F08430D1F4809180008F7D1E
:1002D00003C0809180008F7780938000089584B55B
:1002E0008F7702C084B58F7D84BD08958091B00062
:1002F0008F7703C08091B0008F7D8093B000089508
:10030000CF93DF93282F30E0F901EA58FE4F849114
:10031000F901E855FE4FD491F901EC56FE4FC49116
:10032000CC2391F081110E945701EC2FF0E0EE0FE9
:10033000FF1FE657FE4FA591B491EC91ED2381E0AC
:1003400090E021F480E002C080E090E0DF91CF9166
:1003500008951F93CF93DF93282F30E0F901EA58D7
:10036000FE4F8491F901E855FE4FD491F901EC5606
:10037000FE4FC491CC23C1F0162F81110E9457016A
:10038000EC2FF0E0EE0FFF1FE459FE4FA591B49162
:100390009FB7F894111104C08C91D095D82302C056
:1003A000EC91DE2BDC939FBFDF91CF911F910895DD
:1003B000CF93DF9390E0FC01E855FE4F2491FC01C0
:1003C000EC56FE4F8491882361F190E0880F991FCD
:1003D000FC01EE59FE4FC591D491FC01E459FE4F4A
:1003E000A591B491611109C09FB7F89488812095B7
:1003F00082238883EC912E230BC0623061F49FB777
:10040000F8948881322F309583238883EC912E2BAA
:100410002C939FBF06C08FB7F894E8812E2B2883BA
:100420008FBFDF91CF9108953FB7F8948091C501B8
:100430009091C601A091C701B091C80126B5A89BB3
:1004400005C02F3F19F00196A11DB11D3FBFBA2F66
:10045000A92F982F8827820F911DA11DB11DBC01C6
:10046000CD0142E0660F771F881F991F4A95D1F78B
:1004700008958F929F92AF92BF92CF92DF92EF92A8
:10048000FF926B017C010E9414024B015C01C114BC
:10049000D104E104F104F1F00E941402DC01CB016B
:1004A00088199909AA09BB09883E9340A105B1059D
:1004B00070F321E0C21AD108E108F10888EE880E35
:1004C00083E0981EA11CB11CC114D104E104F10405
:1004D00019F7DDCFFF90EF90DF90CF90BF90AF90F6
:1004E0009F908F900895CF92DF92EF92FF920F939B
:1004F0001F93CF93DF93CDB7DEB7C054D1400FB673
:10050000F894DEBF0FBECDBF2FB7F8948091C9011C
:100510009091CA01A091CB01B091CC012FBF409125
:100520008B0250918C0260918D0270918E028C0131
:100530009D01041B150B260B370BB901A801403D8B
:1005400057406105710518F480919302BCC08093F7
:100550008B0290938C02A0938D02B0938E02109226
:1005600086021092850210928402109283021092E9
:10057000820261E0809187020E94A9016AEF70E027
:1005800080E090E00E94390261E0809187020E9441
:10059000D80160E0809187020E94A90164E170E0C7
:1005A00080E090E00E943902F89461E08091870237
:1005B0000E94A9018BE990E00197F1F762E0809138
:1005C00087020E94D80183E290E00197F1F780E072
:1005D0000E940901672B682B692B21F4109293026A
:1005E00078943EC081E00E940901672B682B692B3B
:1005F000A9F38E010F5F1F4F6E012FEBC21A2EEF72
:10060000D20A780180E00E940901F70160837183BA
:100610008283938381E00E940901F70164837583DB
:1006200086839783F8E0EF0EF11CEC14FD0451F77C
:10063000789420E030E0F801C080D180E280F3803F
:100640004481558166817781C114D104E104F104AC
:1006500029F0411551056105710521F410929302AD
:1006600080E031C0F90183E0F595E7958A95E1F7DF
:10067000EE57FD4F8081880FC416D506E606F706B3
:1006800008F4816080832F5F3F4F085F1F4F28323F
:10069000310589F62091860230E0409182028091F6
:1006A000830290E0840F911D40918402840F911D7C
:1006B00040918502840F911D99272817390771F6FB
:1006C00081E080939302C05CDE4F0FB6F894DEBFEA
:1006D0000FBECDBFDF91CF911F910F91FF90EF9093
:1006E000DF90CF900895CF92DF92EF92FF920F9319
:1006F0001F93CF93DF936C017A018B01C0E0D0E0B0
:10070000CE15DF0581F0D8016D918D01D601ED91F7
:10071000FC910190F081E02DC6010995892B11F023
:100720002196EECF7E01C701DF91CF911F910F91EE
:10073000FF90EF90DF90CF900895FC01538D448D92
:10074000252F30E0842F90E0821B930B541710F07C
:10075000CF96089501970895FC01918D828D981789
:1007600061F0828DDF01A80FB11D5D968C91928D95
:100770009F5F9F73928F90E008958FEF9FEF089592
:10078000FC01918D828D981731F0828DE80FF11D5B
:10079000858D90E008958FEF9FEF0895FC01918D76
:1007A000228D892F90E0805C9F4F821B91098F736F
:1007B000992708958DEC91E00E94CE0321E0892BCA
:1007C00009F420E0822F0895FC01848DDF01A80F39
:1007D000B11DA35ABF4F2C91848D90E001968F7369
:1007E0009927848FA689B7892C93A089B1898C9188
:1007F000837080648C93938D848D981306C00288D7
:10080000F389E02D80818F7D80830895EF92FF92A0
:100810000F931F93CF93DF93EC0181E0888F9B8D23
:100820008C8D981305C0E889F989808185FD26C0E3
:10083000F62E0B8D10E00F5F1F4F0F731127E02E68
:100840008C8DE8120CC00FB607FCFACFE889F98945
:10085000808185FFF5CFCE010E94E403F1CF8B8D1F
:10086000FE01E80FF11DE35AFF4FF0829FB7F894A5
:100870000B8FEA89FB89808180620AC09FB7F89458
:10088000EE89FF896083E889F989808183708064BB
:1008900080839FBF81E090E0DF91CF911F910F9106
:1008A000FF90EF900895CF93DF93EC01888D88231C
:1008B000C9F0EA89FB89808185FD05C0A889B989CD
:1008C0008C9186FD0FC00FB607FCF5CF808185FFA8
:1008D000F2CFA889B9898C9185FFEDCFCE010E9416
:1008E000E403E7CFDF91CF91089580E090E0892B7A
:1008F00029F00E94DA0381110C9400000895CF932F
:10090000DF93EC0160E08E810E94A90161E08E819D
:100910000E94A90160E08E810E94A9018BE891E00C
:100920000197F1F7DF91CF910895CF92DF92EF9287
:10093000FF920F931F93CF93DF936C017C0187E0AD
:10094000E80EF11CC0E0D0E0062F10E0B8010C2E3C
:1009500002C0759567950A94E2F76170F70181917D
:100960007F010E94A9012196C430D10579F7C60103
:10097000DF91CF911F910F91FF90EF90DF90CF907B
:100980000C947F04CF92DF92EF92FF920F931F930C
:10099000CF93DF93EC01F62E642F8C810E94A90186
:1009A0008D818F3F19F060E00E94A9018F850F2D86
:1009B00010E084FF25C06E0187E0C80ED11CE12C39
:1009C000F12CB8010E2C02C0759567950A94E2F7D8
:1009D0006170F60181916F010E94A901FFEFEF1A8A
:1009E000FF0A88E0E816F10461F7CE01DF91CF91AC
:1009F0001F910F91FF90EF90DF90CF900C947F04A8
:100A0000B80184E0759567958A95E1F7CE010E945B
:100A100095046F2DCE01DF91CF911F910F91FF9023
:100A2000EF90DF90CF900C94950440E0682F8AE619
:100A300092E00C94C204CF93DF93623028F090913F
:100A4000790298609093790260937D0210927E0201
:100A500090E490937F028093800290E0805C9F4FAF
:100A60008093810261E080916E020E94D8018091A2
:100A70006F028F3F19F061E00E94D80161E0809120
:100A800070020E94D801CAE6D2E09E012A56324086
:100A90008091790284FD03C084E090E002C088E088
:100AA00090E02196281739072CF461E08E810E948E
:100AB000D801EBCF8BE39DE00197F1F760E08091E7
:100AC0006E020E94A90160E0809170020E94A9015B
:100AD00080916F028F3F19F060E00E94A901809120
:100AE000790284FD20C063E08AE692E00E949504CA
:100AF000CBE4D6E4CE010197F1F763E08AE692E019
:100B00000E9495042197F1F763E08AE692E00E9443
:100B1000950483E592E00197F1F762E08AE692E0BE
:100B20000E94950415C080620E9415058BE496E42E
:100B30000197F1F78091790280620E94150583E5A3
:100B400092E00197F1F78091790280620E94150589
:100B50008091790280620E94150584E080937A0278
:100B60008CE00E94150581E00E9415058BE39FE152
:100B70000197F1F782E080937B0286E0DF91CF91CD
:100B80000C941505643008F063E090917D026917BC
:100B900010F06FEF690FE62FF0E0E659FD4F9489F2
:100BA000890F80680C94150541E00E94C20481E021
:100BB00090E00895089580E090E00895CF93DF934A
:100BC000EC0188819981009711F00E94A20F19828F
:100BD00018821D821C821B821A82DF91CF91089598
:100BE0006115710579F0FB0101900020E9F731975B
:100BF000AF01461B570BDC01ED91FC910280F381A4
:100C0000E02D099480E090E008958F929F92AF923A
:100C1000BF920F931F93CF93DF93CDB7DEB7A1970A
:100C20000FB6F894DEBF0FBECDBF19A2423008F454
:100C30004AE08E010F5D1F4F842E912CA12CB12C08
:100C4000A50194010E94E20EE62FB901CA010150EC
:100C50001109EA3014F4E05D01C0E95CD801EC93BD
:100C6000232B242B252B61F7B8018AE692E00E9402
:100C7000F005A1960FB6F894DEBF0FBECDBFDF9191
:100C8000CF911F910F91BF90AF909F908F9008953B
:100C9000CF92DF92EF92FF926B017C0141E06DE217
:100CA0008AE692E00E94C20466277727CB016C197E
:100CB0007D098E099F094AE00E9405060196FF9072
:100CC000EF90DF90CF900895BC01990F880B990B9E
:100CD00097FD0C9448064AE00C940506BC018AE690
:100CE00092E00C94F005CF93DF938091C201909134
:100CF000C301019701F56091BA017091BB01EB014D
:100D00002196D093BB01C093BA0163E081E00E94B9
:100D1000C205BE01DD0F880B990B97FF03C00E942F
:100D2000480603C04AE00E9405068CE891E0DF9186
:100D3000CF910C946E06DF91CF9108950E94F1102F
:100D40000F931F93CF93DF93EC01888199810097D4
:100D500029F02A813B812617370788F48B016F5FC2
:100D60007F4F0E942B10009761F0998388831B832B
:100D70000A832C813D81232B11F4FC01108281E038
:100D800001C080E0DF91CF911F910F910895EF9204
:100D9000FF920F931F93CF93DF93EC017B018A01A6
:100DA000BA010E94A006811104C0CE010E94DE0596
:100DB00007C01D830C83B701888199810E94FF10B1
:100DC000CE01DF91CF911F910F91FF90EF90089589
:100DD0001F920F920FB60F9211242F933F938F9370
:100DE0009F93AF93BF938091C9019091CA01A09145
:100DF000CB01B091CC013091C40123E0230F2D37FA
:100E000020F40196A11DB11D05C026E8230F02960E
:100E1000A11DB11D2093C4018093C9019093CA0103
:100E2000A093CB01B093CC018091C5019091C601F4
:100E3000A091C701B091C8010196A11DB11D809379
:100E4000C5019093C601A093C701B093C801BF919B
:100E5000AF919F918F913F912F910F900FBE0F9067
:100E60001F9018951F920F920FB60F9211242F9377
:100E70003F934F935F936F937F938F939F93AF9322
:100E8000BF93EF93FF938DEC91E00E94E403FF91F9
:100E9000EF91BF91AF919F918F917F916F915F91F2
:100EA0004F913F912F910F900FBE0F901F9018956B
:100EB0001F920F920FB60F9211242F938F939F932F
:100EC000EF93FF93E091DD01F091DE018081E091ED
:100ED000E301F091E40182FD12C090818091E6016E
:100EE0008F5F8F732091E701821751F0E091E60147
:100EF000F0E0E353FE4F958F8093E60101C08081BF
:100F0000FF91EF919F918F912F910F900FBE0F90B6
:100F10001F9018951F920F920FB60F9211242F93C6
:100F20003F934F935F936F937F938F939F93AF9371
:100F3000BF93EF93FF93E091B801F091B901099548
:100F4000FF91EF91BF91AF919F918F917F916F91A1
:100F50005F914F913F912F910F900FBE0F901F9077
:100F60001895EDECF1E01382128288EE93E0A0E098
:100F7000B0E084839583A683B7838AE091E0918370
:100F8000808385EC90E09587848784EC90E0978758
:100F9000868780EC90E0918B808B81EC90E0938B46
:100FA000828B82EC90E0958B848B86EC90E0978B23
:100FB000868B118E128E138E148EA2E8B2E087E01B
:100FC00015968C9315978BE016968C931697EFEAEF
:100FD000F1E0E4911796EC931797EBE9F1E0E491D7
:100FE0001896EC93189740E85EE360E070E01D9679
:100FF0004D935D936D937C935097EAE6F2E01382F4
:1010000012822CE131E03183208398E094839FEFBA
:10101000958399E096839AE0978380878CE0818717
:101020008DE082871386148615861686178661E002
:1010300080E10C941B05CF93DF93CDB7DEB7AD975E
:101040000FB6F894DEBF0FBECDBF789484B5826032
:1010500084BD84B5816084BD85B5826085BD85B55C
:10106000816085BD80916E00816080936E001092DA
:101070008100809181008260809381008091810055
:1010800081608093810080918000816080938000E6
:101090008091B10084608093B1008091B000816044
:1010A0008093B00080917A00846080937A00809170
:1010B0007A00826080937A0080917A0081608093C8
:1010C0007A0080917A00806880937A001092C10043
:1010D00062E0809187020E94D80180E398EFAFEF31
:1010E000BFEF80938B0290938C02A0938D02B093FC
:1010F0008E0264E084E10E941B05E091DD01F09125
:10110000DE0182E08083E091D901F091DA01108262
:10111000E091DB01F091DC018FEC80831092E5011E
:10112000E091E101F091E20186E08083E091DF014E
:10113000F091E001808180618083E091DF01F09196
:10114000E001808188608083E091DF01F091E0011F
:10115000808180688083E091DF01F091E0018081EF
:101160008F7D808360E082E00E94D80162E083E0AE
:101170000E94D80180E1809381001092800080E578
:1011800093EC909387008093860083E180938100A5
:1011900083E796E09093B9018093B80181E0809352
:1011A0006F000E9415058BE39FE10197F1F760E066
:1011B00080E00E94C20584E291E00E946E0661E038
:1011C00080E00E94C2058FE291E00E946E0662E01C
:1011D00080E00E94C20580E491E00E946E06CC246B
:1011E000C394D12CCE0101967C0183E00E94800142
:1011F000892BA1F560E080E00E94C2058DE491E0BA
:101200000E946E0661E080E00E94C20588E591E0E0
:101210000E946E0662E080E00E94C2058BE691E0CB
:101220000E946E0662E087E00E94C20582E791E0BC
:101230000E946E0662E08FE00E94C20589E791E09D
:101240000E946E0663E080E00E94C20581E891E0A2
:101250000E946E06D092C301C092C2018091C20169
:101260009091C301019709F071C182E00E94800151
:101270008130910509F045C00091C0011091C10174
:101280000F5F1F4F1093C1010093C001000F111F8A
:101290001093BF010093BE019093BD018093BC01E8
:1012A00063E089E00E94C205C8010E9464068BE8E1
:1012B00091E00E946E0663E081E10E94C2058AE827
:1012C00091E00E946E0663E08DE00E94C20561E03D
:1012D0008AE692E00E94D40564E670E080E090E047
:1012E0000E94390263E08DE00E94C20562E08AE656
:1012F00092E00E94D40564E670E080E090E00E94F5
:10130000390282E00E948001892B39F48091BC016E
:101310009091BD01019709F422C18091BA01909189
:10132000BB010F970CF412C18091C0019091C101D3
:1013300024E0880F991F2A95E1F79093BF018093CD
:10134000BE011092C1011092C0011092BB01109217
:10135000BA010E9473028823B9F1809188028B3010
:1013600029F090F18551823048F02EC060918402BE
:1013700070E080E090E00E94430D2AC0109184024A
:10138000612F6F7770E080E090E00E94450D20E0D3
:1013900030E040E853E40E94800D4B015C01609115
:1013A000850270E080E090E00E94450DA501940167
:1013B0000E94760E2DEC3CEC4CEC5DE30E94800D1F
:1013C00017FF06C0905804C060E070E080EC9FE713
:1013D0001BA21AA21DA21CA21FA21EA2870122E00C
:1013E00044E00E94BC0A009771F0FC0101900020CB
:1013F000E9F73197AF01481B590BBC01CE0182962A
:101400000E94C70604C0CE0182960E94DE0580912C
:10141000BE019091BF0119A618A61BA61AA61DA66B
:101420001CA64AE0B7010E94DC0AF70101900020E7
:10143000E9F73197AF014E195F09B701CE018896E0
:101440000E94C7061A8219821C821B821E821D827C
:1014500068A579A56115710529F04CA55DA5C701A1
:101460000E94C7060D811E810F5F1F4FB801C70183
:101470000E94A006882309F47BC029813A818D81CE
:101480009E816FE871E0820F931F0E94FF101E8300
:101490000D838EA19FA1AAA0BBA0A114B10409F441
:1014A00063C00097B1F00D811E81080F191FB801AC
:1014B000C7010E94A006882309F456C029813A81F9
:1014C0008D819E81B501820F931F0E94FF101E83A4
:1014D0000D834D815E8169817A818DEC91E00E945E
:1014E000730361E971E08DEC91E00E94F005898160
:1014F0009A810E94A20F88A599A50E94A20F8AA195
:101500009BA10E94A20F63E081E10E94C20580912D
:10151000BE019091BF010E9464068BE891E00E9499
:101520006E068091BE019091BF0160E08A35910501
:1015300034F080E00E94C20584E991E005C080E0BB
:101540000E94C20587EA91E00E946E0664EF71E096
:1015500080E090E00E9439020E94750446CE10920D
:10156000BD011092BC01D9CEC7010E94DE05B1CFEA
:10157000C7010E94DE058DCFEF920F931F93CF938B
:10158000DF93E80147FD02C034E001C034E1042EDE
:10159000000C550B57FF03C0519541955109E32E9F
:1015A000022F242FAE010E94010BCE01DF91CF91BB
:1015B0001F910F91EF900895BB274A3031F4992382
:1015C00022F4BDE2909581959F4F0C94E80ABB27C9
:1015D000FB015527AA27880F991FAA1FA41710F0EF
:1015E000A41B83955051B9F7A05DAA3308F0A95DFB
:1015F000A193009779F7B111B1931192CB010C949B
:10160000330DA9E0B0E0E7E0FBE00C94440E6A0182
:10161000122FB02E2BE3201720F0FF24F394F00EAE
:1016200002C02CE3F22E0F2D27E0AE014F5F5F4F7B
:101630000E945B0CBC014981842F8970813031F09C
:10164000E1FC06C0E0FE06C090E205C09DE203C0DA
:101650009BE201C090E05E2D507143FF3CC09111B0
:1016600002C083E001C084E0811718F4212F281BF9
:1016700001C020E051110BC0F601822F30E2882317
:1016800019F031938150FBCFC20ED11C20E0992379
:1016900029F0D6019C93F60131966F01C60103969D
:1016A000E2FE0AC03EE4D6013C9341E411964C931D
:1016B000119712963C9306C03EE6F601308341E650
:1016C00041833283FC01322F40E2332309F442C0CC
:1016D00041933150FACF42FF44C0911102C083E0E0
:1016E00001C084E0811718F4212F281B01C020E0DD
:1016F00051110BC0F601822F30E2882319F031938B
:101700008150FBCFC20ED11C20E0992329F0D601D5
:101710009C93F60131966F01C6010396E2FE0BC061
:1017200039E4D6013C933EE411963C93119736E49C
:1017300012963C9307C039E6F60130833EE63183CA
:1017400036E63283FC01322F40E2332319F0419315
:101750003150FBCFFC01E20FF11D10828EEF9FEFA5
:10176000A6C021E030E0911102C020E030E0161662
:1017700017061CF4FB01319602C0E1E0F0E02E0FE9
:101780003F1FBB2021F0EB2DF0E0319602C0E0E0DE
:10179000F0E02E0F3F1FE12FF0E02E173F071CF463
:1017A000121B212F01C020E08E2D887159F4F60103
:1017B000822F30E2882319F031938150FBCFC20E83
:1017C000D11C20E0992329F0D6019C93F601319693
:1017D0006F0151110BC0F601822F90E3882319F09D
:1017E00091938150FBCFC20ED11C20E00F2D060F2C
:1017F0009A81342F307144FF03C0913309F40150B2
:10180000101624F4093018F008E001C001E0AB0123
:1018100077FF02C040E050E0FB01E41BF50BA1E0C4
:10182000B0E0AC0FBD1FEA0FFB1F8EE2A82E4B01EC
:10183000801A91080B2D10E01195019511094F3F69
:10184000BFEF5B0721F4D601AC9211966D016417CE
:1018500075072CF08416950614F4818101C080E38D
:10186000415051093196D60111967D01401751071B
:1018700024F0D6018C936701E2CF6417750739F421
:10188000963320F4953319F4311101C081E3F60148
:101890008083F701822F90E2882319F09193815081
:1018A000FBCFF701E20FF11D108280E090E0299656
:1018B000ECE00C94600E283008F027E03327DA01C2
:1018C000990F311D87FD916000966105710539F40E
:1018D00032602E5F3D9330E32A95E1F708959F3FF4
:1018E00030F080387105610509F03C5F3C5F3D9345
:1018F000913008F08068911DDF93CF931F930F9371
:10190000FF92EF92192F987F9695E92F96959695CD
:10191000E90FFF27EE53FF4F99273327EE24FF24CB
:10192000A701E70105900894079428F4360FE71EF5
:10193000F81E491F511D660F771F881F991F0694B7
:10194000A1F70590079428F4E70EF81E491F561FCB
:10195000C11D770F881F991F661F0694A1F7059078
:10196000079428F4F80E491F561FC71FD11D880F72
:10197000991F661F771F0694A1F70590079420F41E
:10198000490F561FC71FD81F990F661F771F881F43
:101990000694A9F784911095177041F0D695C795D4
:1019A00057954795F794E7941A95C1F7E8E6F0E064
:1019B00068941590159135916591959105907FE208
:1019C0007395E118F10A430B560BC90BD009C0F708
:1019D000E10CF11E431F561FC91FD01D7EF470334A
:1019E00011F48A95E6CFE894015030F0080F0AF41C
:1019F0000027021708F4202F2395022F7A3328F0AE
:101A000079E37D932A95E9F710C07D932A9589F6AD
:101A1000069497956795379517951794E118F10AED
:101A2000430B560BC90BD00998F023957E91739503
:101A30007A3308F070E37C932013B8F77E917061DD
:101A40007D9330F0839571E37D9370E32A95E1F700
:101A50001124EF90FF900F911F91CF91DF91992763
:101A600087FD90950895DC01FC01672F7191772324
:101A7000E1F7329704C07C916D9370836291AE1749
:101A8000BF07C8F30895E89409C097FB3EF490950A
:101A90008095709561957F4F8F4F9F4F9923A9F047
:101AA000F92F96E9BB279395F695879577956795D6
:101AB000B795F111F8CFFAF4BB0F11F460FF1BC01A
:101AC0006F5F7F4F8F4F9F4F16C0882311F096E9AD
:101AD00011C0772321F09EE8872F762F05C066235B
:101AE00071F096E8862F70E060E02AF09A95660F14
:101AF000771F881FDAF7880F9695879597F90895CD
:101B00000E94930D0C94040E0E94F60D38F00E9472
:101B1000FD0D20F0952311F00C94ED0D0C94F30DB8
:101B200011240C94380E0E94150E70F3959FC1F38A
:101B3000950F50E0551F629FF001729FBB27F00D7B
:101B4000B11D639FAA27F00DB11DAA1F649F6627D0
:101B5000B00DA11D661F829F2227B00DA11D621F1F
:101B6000739FB00DA11D621F839FA00D611D221FD9
:101B7000749F3327A00D611D231F849F600D211DBD
:101B8000822F762F6A2F11249F5750409AF0F1F040
:101B900088234AF0EE0FFF1FBB1F661F771F881FA9
:101BA00091505040A9F79E3F510580F00C94ED0DE7
:101BB0000C94380E5F3FE4F3983ED4F38695779506
:101BC0006795B795F795E7959F5FC1F7FE2B880F4F
:101BD000911D9695879597F9089597F99F6780E8E5
:101BE00070E060E008959FEF80EC089500240A946F
:101BF0001616170618060906089500240A941216E8
:101C00001306140605060895092E0394000C11F41A
:101C1000882352F0BB0F40F4BF2B11F460FF04C0C7
:101C20006F5F7F4F8F4F9F4F089557FD9058440F20
:101C3000551F59F05F3F71F04795880F97FB991F2B
:101C400061F09F3F79F087950895121613061406E8
:101C5000551FF2CF4695F1DF08C016161706180675
:101C6000991FF1CF86957105610508940895E89450
:101C7000BB2766277727CB0197F908952F923F92CC
:101C80004F925F926F927F928F929F92AF92BF928C
:101C9000CF92DF92EF92FF920F931F93CF93DF9338
:101CA000CDB7DEB7CA1BDB0B0FB6F894DEBF0FBE95
:101CB000CDBF09942A88398848885F846E847D84E2
:101CC0008C849B84AA84B984C884DF80EE80FD80E4
:101CD0000C811B81AA81B981CE0FD11D0FB6F8945A
:101CE000DEBF0FBECDBFED0108955058BB27AA2718
:101CF0000E948D0E0C94040E0E94F60D38F00E9486
:101D0000FD0D20F039F49F3F19F426F40C94F30DE7
:101D10000EF4E095E7FB0C94ED0DE92F0E94150EF3
:101D200058F3BA17620773078407950720F079F410
:101D3000A6F50C94370E0EF4E0950B2EBA2FA02DBD
:101D40000B01B90190010C01CA01A0011124FF2768
:101D5000591B99F0593F50F4503E68F11A16F04063
:101D6000A22F232F342F4427585FF3CF4695379562
:101D70002795A795F0405395C9F77EF41F16BA0B27
:101D8000620B730B840BBAF09150A1F0FF0FBB1FD5
:101D9000661F771F881FC2F70EC0BA0F621F731F1E
:101DA000841F48F4879577956795B795F7959E3F7B
:101DB00008F0B0CF9395880F08F09927EE0F97950C
:101DC00087950895A1E21A2EAA1BBB1BFD010DC029
:101DD000AA1FBB1FEE1FFF1FA217B307E407F507DB
:101DE00020F0A21BB30BE40BF50B661F771F881FB7
:101DF000991F1A9469F760957095809590959B014D
:101E0000AC01BD01CF010895EE0FFF1F0590F491C5
:101E1000E02D09940F931F93CF93DF9382309105A8
:101E200010F482E090E0E0919602F091970220E0B9
:101E300030E0A0E0B0E0309719F14081518102819B
:101E4000138148175907C8F08417950769F410974C
:101E500031F012960C93129713961C9327C000939F
:101E600096021093970222C02115310519F04217EE
:101E7000530718F49A01BD01EF01DF01F801DBCF30
:101E800021153105F9F0281B390B2430310580F478
:101E90008A819B816115710521F0FB019383828307
:101EA00004C09093970280939602FE01329644C03C
:101EB000FE01E20FF31F8193919322503109398380
:101EC00028833AC02091940230919502232B41F44B
:101ED00020910201309103013093950220939402E6
:101EE00020910001309101012115310541F42DB7F8
:101EF0003EB74091040150910501241B350BE09140
:101F00009402F0919502E217F307A0F42E1B3F0B09
:101F10002817390778F0AC014E5F5F4F241735075B
:101F200048F04E0F5F1F50939502409394028193A7
:101F3000919302C0E0E0F0E0CF01DF91CF911F91DB
:101F40000F910895CF93DF93009709F481C0FC01AE
:101F5000329713821282A0919602B0919702109745
:101F600081F420813181820F931F2091940230915E
:101F700095022817390751F5F0939502E0939402E2
:101F800067C0ED0120E030E0CE17DF0740F44A8162
:101F90005B819E0141155105F1F0EA01F5CFD38334
:101FA000C28340815181840F951FC817D90759F406
:101FB00088819981840F951F0296918380838A81FD
:101FC0009B81938382832115310529F4F093970235
:101FD000E09396023DC0E901FB83EA834991599160
:101FE000C40FD51FEC17FD0761F480819181840F28
:101FF000951F0296E90199838883828193819B834F
:102000008A83E0E0F0E012968D919C9113970097FF
:1020100019F0FD01DC01F7CF8D919C9111979D0185
:102020002E5F3F4F820F931F2091940230919502B3
:102030002817390769F4309729F410929702109203
:10204000960202C013821282B0939502A09394026A
:10205000DF91CF910895A0E0B0E0E1E3F0E10C94CE
:10206000420EEC01009721F4CB010E940A0FB4C08C
:10207000FC01E60FF71F9C0122503109E217F3071C
:1020800008F4A8C0D9010D911C91119706171707E4
:10209000B0F00530110508F49BC0C80104978617FD
:1020A000970708F495C002501109061B170B0193FE
:1020B00011936D937C93CF010E94A20F89C05B01A5
:1020C000A01AB10A4C01800E911EA0919602B09107
:1020D0009702612C712CE12CF12C109709F446C069
:1020E0008D919C911197A815B905B1F56C0142E04D
:1020F000C40ED11CCA14DB0478F14C018A189B0869
:10210000640142E0C40ED11C1296BC901297139643
:10211000AC91B5E0CB16D10440F0B282A38391829A
:102120008082D9016D937C9309C00E5F1F4F800F91
:10213000911FF90191838083EB2DFA2FE114F104B3
:1021400031F0D7011396FC93EE93129741C0F093B0
:102150009702E09396023CC06816790608F43C01A9
:102160007D0112960D90BC91A02DB7CF8091940265
:102170009091950288169906E1F466167706C8F4E0
:102180008091000190910101009741F48DB79EB7B5
:102190004091040150910501841B950BE817F90744
:1021A000C8F4F0939502E0939402F901718360837F
:1021B0000FC0CB010E940A0F7C01009759F0A801C3
:1021C000BE010E94F610CE010E94A20FC70104C0FA
:1021D000CE0102C080E090E0CDB7DEB7EEE00C9417
:1021E0005E0E81E090E0F8940C940611FB01DC0196
:1021F00002C001900D9241505040D8F70895FB0164
:10220000DC0101900D920020E1F70895F894FFCFD2
:1022100000009802800000000000060473039D0384
:102220005304CE03AC03C00300000000D4057303C5
:10223000DB05DA0550756C736F6D6574726F004164
:10224000706C6173746120656C20626F746F6E00D6
:102250007061726120696E696369617200457370B3
:1022600065726520202020004D696469656E646F89
:102270002070756C736F73202020005365672020D9
:10228000200050756C736F2000546F74616C205087
:102290000020202020202020202020202020002C72
:1022A000000D0A0050616369656E746520457374A2
:1022B00072657361646F0050616369656E74652057
:0822C0004E6F726D616C0000AD
:00000001FF
